:1000000000200010110300000103000005030000A0
:1000100000000000000000000000000000000000E0
:1000200000000000000000000000000009030000C4
:1000300000000000000000000D030000C9030000E4
:100040009103000091030000910300009103000060
:100050009103000091030000910300009103000050
:100060009103000091030000910300009103000040
:1000700091030000510300005103000051030000F0
:100080000906000041060000510300005103000072
:1000900051030000510300000000000000000000B8
:1000A0005103000051030000510300000000000054
:1000B00051030000510300005103000051030000F0
:1000C000FFFFFFFFFFFFFFFFFFFFFFFFFFFFFFFF40
:1000D000FFFFFFFFFFFFFFFFFFFFFFFFFFFFFFFF30
:1000E000FFFFFFFFFFFFFFFFFFFFFFFFFFFFFFFF20
:1003100008B50A4B0A4A0B4903E0107801321870FD
:1003200001338B42F9D3084B0849002201E01A70CF
:1003300001338B42FBD300F09FF9FEE70000001071
:10034000F40600000000001000000010140000106F
:1003500000B5FEE710B50B492023CB630A4B95206F
:100360001A1DD067094A0424106920431061022233
:100370001A67012000225A6758675A671A6748604F
:1003800030BF10BD00C000400080044000ED00E020
:10039000094B01225A67094A0021D1638021822238
:1003A000490092009950064A042011691B188143A4
:1003B0001161044ADA6770470080044000C00040C1
:1003C00000ED00E0DF0001007047000000B5074BC2
:1003D00000229A608022520204E030BF1968114264
:1003E000FBD001380028F9D100BDC04610E000E084
:1003F000F8B5184E3168002929D1174B174D3F2207
:100400005A62EA6F80231B021343EB67144B0222EC
:100410001A60144A0123116013601160124A134CD0
:100420001360134A642062602360AA23A3605523EB
:10043000A360FFF7CBFF0F48E768FFF7C7FFE3684C
:100440000D4AE96FFF1A0A40BF00EA673760014BA7
:100450001868F8BD000000100080044004800440CB
:10046000D0800440D4800440D88004400040004044
:10047000FFFFFF0002080000FF7FFFFF70B51D4B6C
:100480001D4A07215A6000229A601C4D19608E2374
:100490009B00E9588D239B00E950194C19498C2386
:1004A0009B000226E9506660E260FFF7A1FFFA2395
:1004B000DB005843144900F0E3F806233D38A061FF
:1004C0006361124B3F211A6E8A43164380221E66D7
:1004D0009200A95880235B001943A9508222920000
:1004E000AB5081229200A9581943A950084A1360C1
:1004F00070BDC04610E000E0DF2E00000080044028
:1005000000C00040BF180000020800000040044086
:1005100000E100E030B5234A234C24482449A025BB
:1005200080231B02ED05EA50E250C250CA50214B15
:100530000122EA500022E250C250CA501E4BC02293
:10054000191C08311A609A601A615A61DA611A62DC
:100550005A629A62DA621A635A639A63DA631A64B5
:100560005A649A64DA641A655A659A65DA651A6695
:100570005A66DA661A67CA6780310A604A60CA60DA
:100580000A614A618A61CA610A624A62C122191D0E
:100590005A679A67DA67CA67DA609A6690331A60B0
:1005A00030BDC046FF0F00000000015000000250A7
:1005B00000000350FC3F00000040044010B50D490E
:1005C0000D4A8E239B00D1500C4A0D4BDA67FFF782
:1005D000A1FFFFF753FF0B4C3220FFF7F7FE8023FC
:1005E000FA202380C000FFF7F1FE00232380FFF7ED
:1005F000B1FEF0E7B8ED000000800440DF0001002C
:10060000048004400002005000B50A4B0122196822
:10061000114204D01A60084A1168013111601A6849
:1006200010231A4205D0034A1360044B1A680132A2
:100630001A6000BD00C00040040000100800001057
:1006400000B50A4B01221968114204D01A60084A09
:100650001168013111601A6810231A4205D0034A4B
:100660001360044B1A6801321A6000BD000001409B
:100670000C0000101000001008B5FFF79FFF08BD28
:10068000002931D00122D207030901E00901120932
:100690009942FBD9430801E0490052089942FBD92D
:1006A00000E04908401A07D35241FAD301461046E8
:1006B000704749084018F7D29218FAD340180146FB
:1006C00010467047CB0F00D04942021000D540427F
:1006D000534008B5FFF7D4FF0CBC521000D3404282
:1006E000002A00D549421847F446002000F001F8DE
:0406F00060477047A8
:0400000300000311E5
:00000001FF
