:1000000000200010110300000103000005030000A0
:1000100000000000000000000000000000000000E0
:1000200000000000000000000000000009030000C4
:1000300000000000000000000D030000C9030000E4
:100040009103000091030000910300009103000060
:100050009103000091030000910300009103000050
:100060009103000091030000910300009103000040
:1000700091030000510300005103000051030000F0
:100080002106000059060000510300005103000042
:1000900051030000510300000000000000000000B8
:1000A0005103000051030000510300000000000054
:1000B00051030000510300005103000051030000F0
:1000C000FFFFFFFFFFFFFFFFFFFFFFFFFFFFFFFF40
:1000D000FFFFFFFFFFFFFFFFFFFFFFFFFFFFFFFF30
:1000E000FFFFFFFFFFFFFFFFFFFFFFFFFFFFFFFF20
:1003100008B50A4B0A4A0B4903E0107801321870FD
:1003200001338B42F9D3084B0849002201E01A70CF
:1003300001338B42FBD300F0ABF9FEE70000001065
:100340000C07000000000010000000101400001056
:1003500000B5FEE710B50B492023CB630A4B95206F
:100360001A1DD067094A0424106920431061022233
:100370001A67012000225A6758675A671A6748604F
:1003800030BF10BD00C000400080044000ED00E020
:10039000094B01225A67094A0021D1638021822238
:1003A000490092009950064A042011691B188143A4
:1003B0001161044ADA6770470080044000C00040C1
:1003C00000ED00E0DF0001007047000000B5074BC2
:1003D00000229A608022520204E030BF1968114264
:1003E000FBD001380028F9D100BDC04610E000E084
:1003F000F8B5184E3168002929D1174B174D3F2207
:100400005A62EA6F80231B021343EB67144B0222EC
:100410001A60144A0123116013601160124A134CD0
:100420001360134A642062602360AA23A3605523EB
:10043000A360FFF7CBFF0F48E768FFF7C7FFE3684C
:100440000D4AE96FFF1A0A40BF00EA673760014BA7
:100450001868F8BD000000100080044004800440CB
:10046000D0800440D4800440D88004400040004044
:10047000FFFFFF0002080000FF7FFFFFF8B5234CDD
:10048000234EC1233361231CE03303221A600A2266
:100490009A60221C0023E4320121136011601D4A7E
:1004A0001D491E4D51600721936011608E229200FC
:1004B000A1588D229200A15019498C229200022746
:1004C000A1506F60EB60FFF793FFFA23DB00584306
:1004D000144900F0E1F806233D38A8616B61336EE2
:1004E0003F2293431F43802237669200A158802306
:1004F0005B001943A15082229200A35081229200F6
:10050000A1581943A150084A1360F8BD0080044067
:100510000040044010E000E0DF2E000000C000407A
:10052000BF1800000208000000E100E030B5234AD7
:10053000234C24482449A02580231B02ED05EA50C2
:10054000E250C250CA50214B0122EA500022E25030
:10055000C250CA501E4BC022191C08311A609A6042
:100560001A615A61DA611A625A629A62DA621A632D
:100570005A639A63DA631A645A649A64DA641A658D
:100580005A659A65DA651A665A66DA661A67CA673C
:1005900080310A604A60CA600A614A618A61CA6140
:1005A0000A624A62C122191D5A679A67DA67CA67E6
:1005B000DA609A6690331A6030BDC046FF0F0000C3
:1005C000000001500000025000000350FC3F0000FA
:1005D0000040044010B50D490D4A8E239B00D150B8
:1005E0000C4A0D4BDA67FFF7A1FFFFF747FF0B4CF3
:1005F0003220FFF7EBFE8023FA202380C000FFF7B4
:10060000E5FE00232380FFF7A5FEF0E7B8ED00002C
:1006100000800440DF00010004800440000200501C
:1006200000B50A4B01221968114204D01A60084A29
:100630001168013111601A6810231A4205D0034A6B
:100640001360044B1A6801321A6000BD00C00040FC
:10065000040000100800001000B50A4B01221968C0
:10066000114204D01A60084A1168013111601A68F9
:1006700010231A4205D0034A1360044B1A68013252
:100680001A6000BD000001400C00001010000010B6
:1006900008B5FFF79FFF08BD002931D00122D2071E
:1006A000030901E0090112099942FBD9430801E05D
:1006B000490052089942FBD900E04908401A07D383
:1006C0005241FAD301461046704749084018F7D204
:1006D0009218FAD34018014610467047CB0F00D04D
:1006E0004942021000D54042534008B5FFF7D4FFFD
:1006F0000CBC521000D34042002A00D54942184792
:0C070000F446002000F001F8604770474C
:0400000300000311E5
:00000001FF
